:020000001628C0
:0E0006008312031321088A00200882000800DC
:1000140003208A110A128000840AA00A0319A10A83
:08002400F003031D0A28080087
:10002C00FF30831203138500831686018312860129
:10003C000230FB004530FC00A930FD00FD0B2428EC
:10004C00FC0B2428FB0B242800000000FF3086004A
:10005C000330FB008A30FC005530FD00FD0B3428CA
:10006C00FC0B3428FB0B3428000000008601033005
:10007C00FB008A30FC005530FD00FD0B4328FC0BC7
:10008C004328FB0B432800000000423086000B1174
:10009C0081018B1686170330FB008A30FC0055302B
:1000AC00FD00FD0B5728FC0B5728FB0B57280000B5
:1000BC00000086010330FB008A30FC005530FD0047
:1000CC00FD0B6628FC0B6628FB0B66280000000065
:0E00DC0086130508A30086170508A2007428E5
:02400E006A2125
:00000001FF
