:02000000B62820
:10000800FF00030E8301B2000A08B1008A017008DC
:10001800A0008B130B1D45280B118101A70A03199A
:10002800A80A2808073A031D1B28A1302706031D24
:100038004528A50A0319A60A2A083006031D2628FA
:100048002F082906031D2C28A901AA012110211512
:100058002C082E06031D32282D082B06031D3728D1
:10006800AB01AC012111211C3C28A90A0319AA0AD9
:10007800211D4128AB0A0319AC0A01308506A701E6
:10008800A8018B1C4D288B1086011330A200A110EB
:1000980021108B172008F00031088A00320E8300E7
:0600A800FF0E7F0E0900AF
:0C00AE00831224088A0023088200080046
:1000BA008312A11C7428051D742886120B30FB00BC
:1000CA002630FC005D30FD00FD0B6928FC0B692819
:1000DA00FB0B6928000000001330A200A928063093
:1000EA00FB001330FC00AD30FD00FD0B7A28FC0B41
:1000FA007A28FB0B7A28000000002118A928211968
:10010A00A9280616861706171A30FB005E30FC006F
:10011A006E30FD00FD0B8F28FC0B8F28FB0B8F2800
:10012A000000211406131A30FB005E30FC006E300A
:10013A00FD00FD0B9E28FC0B9E28FB0B9E28000051
:0A014A000519A928861621140800E3
:1001540057208A110A128000840AA30A0319A40AE8
:08016400F003031DAA280800A6
:10016C0034308312AF003830B0000F30AD000E3099
:10017C00AE008501163083168500831286010F3080
:10018C008316860007309F008B160B1601178B17F2
:10019C0081128312810183168111F830810582301E
:1001AC00FC00DD30FD00FD0BD928FC0BD92800002C
:1001BC00000083122208133A0319E72807300605BA
:1001CC00A2002118ED28211DED281330A2001829BA
:1001DC00A114A201A11CF3285D202929A114A201BC
:1001EC00A11CF9285D202929A110061686170617CF
:1001FC002114A20129290613A110A2012929A11059
:10020C0086010B30FB002630FC005D30FD00FD0B41
:10021C000D29FC0B0D29FB0B0D29000000002110F2
:10022C00A20129292208043A0319EE282208063AC9
:10023C000319F4282208023A0319FA282208003A72
:0A024C00031901290529D5282A29E4
:02400E00CA20C6
:00000001FF
