:02000000B52821
:10000800FF00030E8301B2000A08B1008A017008DC
:10001800A0008B130B1D45280B118101A70A03199A
:10002800A80A2808073A031D1B28A1302706031D24
:100038004528A50A0319A60A2A083006031D2628FA
:100048002F082906031D2C28A901AA012110211512
:100058002C082E06031D32282D082B06031D3728D1
:10006800AB01AC012111211C3C28A90A0319AA0AD9
:10007800211D4128AB0A0319AC0A01308506A701E6
:10008800A8018B1C4C288B101330A200A110211042
:100098008B172008F00031088A00320E8300FF0E0B
:0400A8007F0E0900BE
:0C00AC00831224088A0023088200080048
:1000B8008312A11C7328051D732886120B30FB00C0
:1000C8002630FC005D30FD00FD0B6828FC0B68281D
:1000D800FB0B6828000000001330A200A828063097
:1000E800FB001330FC00AD30FD00FD0B7928FC0B44
:1000F8007928FB0B7928000000002118A82821196D
:10010800A8280616861706171A30FB005E30FC0072
:100118006E30FD00FD0B8E28FC0B8E28FB0B8E2805
:100128000000211406131A30FB005E30FC006E300C
:10013800FD00FD0B9D28FC0B9D28FB0B9D28000056
:0A0148000519A828861621140800E6
:1001520056208A110A128000840AA30A0319A40AEB
:08016200F003031DA9280800A9
:10016A0034308312AF003830B0000F30AD000E309B
:10017A00AE008501163083168500831286010F3082
:10018A008316860007309F008B160B1601178B17F4
:10019A0081128312810183168111F8308105823020
:1001AA00FC00DD30FD00FD0BD828FC0BD828000030
:1001BA00000083122208133A0319E62807300605BD
:1001CA00A2002118EC28211DEC281330A2001729BF
:1001DA00A114A201A11CF2285C202829A114A201C1
:1001EA00A11CF8285C202829A110061686170617D4
:1001FA002114A20128290613A110A2012829A1105D
:10020A000B30FB002630FC005D30FD00FD0B0B2996
:10021A00FC0B0B29FB0B0B290000000086012110A7
:10022A00A20128292208043A0319ED282208063ACD
:10023A000319F3282208023A0319F9282208003A76
:0A024A00031900290429D4282929EA
:02400E00CA20C6
:00000001FF
