:02000000B8281E
:10000800FF00030E8301B2000A08B1008A017008DC
:10001800A0008B130B1D45280B118101A70A03199A
:10002800A80A2808073A031D1B28A1302706031D24
:100038004528A50A0319A60A2A083006031D2628FA
:100048002F082906031D2C28A901AA012110211512
:100058002C082E06031D32282D082B06031D3728D1
:10006800AB01AC012111211C3C28A90A0319AA0AD9
:10007800211D4128AB0A0319AC0A01308506A701E6
:10008800A8018B1C4D288B1086011330A200A110EB
:1000980021108B172008F00031088A00320E8300E7
:0600A800FF0E7F0E0900AF
:0E00AE008312031324088A002308820008002E
:1000BC0083120313A11C7628051D762886120B309B
:1000CC00FB002630FC005D30FD00FD0B6B28FC0BAB
:1000DC006B28FB0B6B28000000001330A200AB2830
:1000EC000630FB001330FC00AD30FD00FD0B7C280E
:1000FC00FC0B7C28FB0B7C28000000002118AB2893
:10010C002119AB280616861706171A30FB005E302D
:10011C00FC006E30FD00FD0B9128FC0B9128FB0BB5
:10012C0091280000211406131A30FB005E30FC00ED
:10013C006E30FD00FD0BA028FC0BA028FB0BA028AB
:0C014C0000000519AB28861621140800DD
:1001580057208A110A128000840AA30A0319A40AE4
:08016800F003031DAC280800A0
:10017000343083120313AF003830B0000F30AD00BD
:100180000E30AE008501163083168500831286017D
:100190000F3083168600073083129F008B160B16D4
:1001A000831601178B178112831281018316811127
:1001B000F83081058230FC00DD30FD00FD0BDE28CB
:1001C000FC0BDE280000000083122208133A0319FA
:1001D000EC2807300605A2002118F228211DF2287C
:1001E0001330A2001D29A114A201A11CF8285E2031
:1001F0002E29A114A201A11CFE285E202E29A110E7
:100200000616861706172114A2012E290613A1101F
:10021000A2012E29A11086010B30FB002630FC0024
:100220005D30FD00FD0B1229FC0B1229FB0B12297E
:10023000000000002110A2012E292208043A03190F
:10024000F3282208063A0319F9282208023A03196A
:10025000FF282208003A031906290A29DA282F293B
:02400E006A2125
:00000001FF
