:02000000B7281F
:10000800FF00030E8301B1000A08B2008A017008DC
:10001800A0008B130B1D45280B118101AF0A031992
:10002800B00A3008073A031D1B28A1302F06031D0C
:100038004528AD0A0319AE0A2C082806031D2628F0
:1000480027082B06031D2C28AB01AC01A210221493
:1000580026082A06031D322829082506031D3728E5
:10006800A501A6012210A21C3C28AB0A0319AC0A60
:10007800221C4128A50A0319A60A01308506AF01EA
:10008800B0018B1C4C288B101330A1002211A21038
:100098008B172008F00032088A00310E8300FF0E0B
:0400A8007F0E0900BE
:0E00AC008312031324088A0023088200080030
:1000BA0083120313221D7528051D752886120B301D
:1000CA00FB002630FC005D30FD00FD0B6A28FC0BAE
:1000DA006A28FB0B6A28000000001330A100AA2836
:1000EA000630FB001330FC00AD30FD00FD0B7B2811
:1000FA00FC0B7B28FB0B7B2800000000A218AA2817
:10010A002218AA280616861706171A30FB005E3030
:10011A00FC006E30FD00FD0B9028FC0B9028FB0BB9
:10012A0090280000A21406131A30FB005E30FC006F
:10013A006E30FD00FD0B9F28FC0B9F28FB0B9F28B0
:0C014A0000000519AA288616A21408005F
:1001560056208A110A128000840AA30A0319A40AE7
:08016600F003031DAB280800A3
:10016E0083120313AF01B001AD01AE01AB01AC01BF
:10017E00A501A6012211A2102210A211A701A80109
:10018E00A901AA01A1013430A7003830A8000F3010
:10019E00A9000E30AA008501163083168500831241
:1001AE0086010F3083168600073083129F008B1650
:1001BE000B16831601178B1781128312810183167A
:1001CE008111F83081058230FC00DD30FD00FD0B21
:1001DE00EE28FC0BEE280000000083122108133AD3
:1001EE000319FC2807300605A100A2180229221CBB
:1001FE0002291330A1002D292215A101221D082943
:10020E005D203E292215A101221D0E295D203E29C9
:10021E002211061686170617A214A1013E290613EF
:10022E002211A1013E2922110B30FB002630FC00C9
:10023E005D30FD00FD0B2129FC0B2129FB0B212933
:10024E00000000008601A210A1013E292108043AF7
:10025E00031903292108063A031909292108023A2C
:10026E0003190F292108003A031916291A29EA2819
:02027E003F2916
:02400E006A2125
:00000001FF
