:02000000C12815
:10000800FF00030E8301B2000A08B1008A017008DC
:10001800A0008B130B1D45280B118101A70A03199A
:10002800A80A2808073A031D1B28A1302706031D24
:100038004528A50A0319A60A2A083006031D2628FA
:100048002F082906031D2C28A901AA012110211512
:100058002C082E06031D32282D082B06031D3728D1
:10006800AB01AC012111211C3C28A90A0319AA0AD9
:10007800211D4128AB0A0319AC0A01308506A701E6
:10008800A8018B1C4D288B1086011330A200A110EB
:1000980021108B172008F00031088A00320E8300E7
:0600A800FF0E7F0E0900AF
:0E00AE008312031324088A002308820008002E
:1000BC0083120313A11C7628051D762886120B309B
:1000CC00FB002630FC005D30FD00FD0B6B28FC0BAB
:1000DC006B28FB0B6B28000000001330A200B42827
:1000EC000630FB001330FC00AD30FD00FD0B7C280E
:1000FC00FC0B7C28FB0B7C28000000002118B4288A
:10010C002119B4280616861706171A30FB005E3024
:10011C00FC006E30FD00FD0B9128FC0B9128FB0BB5
:10012C0091280000211406131A30FB005E30FC00ED
:10013C006E30FD00FD0BA028FC0BA028FB0BA028AB
:10014C0000002208043A0319B0282208063A0319C1
:0E015C00B028B4280519B4288616211408000E
:10016A0057208A110A128000840AA30A0319A40AD2
:08017A00F003031DB528080085
:10018200343083120313AF003830B0000F30AD00AB
:100192000E30AE008501163083168500831286016B
:1001A2000F30831686000F3083129F008B160B16BA
:1001B200831601178B178112831281018316811115
:1001C200F83081058230FC00DD30FD00FD0BE728B0
:1001D200FC0BE7280000000083122208133A0319DF
:1001E200F52807300605A2002118FB28211DFB284F
:1001F2001330A2002629A114A201A11C01295E200C
:100202003729A114A201A11C07295E203729A110B8
:100212000616861706172114A20137290613A11004
:10022200A2013729A11086010B30FB002630FC0009
:100232005D30FD00FD0B1B29FC0B1B29FB0B1B2951
:10024200000000002110A20137292208043A0319F4
:10025200FC282208063A031902292208023A031945
:1002620008292208003A03190F291329E3283829FB
:02400E006A2125
:00000001FF
