:0400000018EF02F003
:1000080000C016F001C015F0E1CF17F0E2CF18F0EC
:100018009EAA1CD0636A5BD800C09EF0732A005069
:10002800020A01E1838200019E51030A03E18392DF
:10003800010E266E83A20AD0890EE16E000EE26ED2
:100048007350E126D8B0E22A9EC0E6FFF2A204D09F
:10005800000183708D91F29216C000F015C001F076
:0A00680017C0E1FF18C0E2FF11000D
:0E007200ACB202D00000FCD7AEC0ADFF120051
:100080000001AD6BAAC0E9FFABC0EAFFEECFACF058
:10009000AC51000A0EE0ACC0AEF0EBDF0001AD2BBE
:1000A000AD51AA25E96E000EAB21EA6EEECFACF0A1
:0400B000EFD7120074
:1000B4001C0E0001AA6F000EAB6FE0DF890EAA6F61
:1000C400000EAB6FDBDF190EAA6F000EAB6FD6DF2D
:0200D400120018
:1000D600AECF9DF0ABA202D0AB98AB889DC000F02E
:0200E600120006
:1000E8000900F5CFE6FF0006FBE10106F9E1120081
:1000F800720E00019F6F000EA06FAE0EA16F000E72
:10010800A26FD60E996F000E9A6F000E9B6F000EAD
:100118009C6FFF0E956FFF0E966F000E976F000E87
:10012800986FFF0E916FFF0E926F000E936F000E87
:10013800946FAC8A900EAB6E948E949C9EAA03D05A
:08014800AECF00F0FBD712005E
:100150000001A8B102D0A39301D0A383A8B302D019
:10016000A39501D0A385A8B702D0A39701D0A387F8
:10017000A8B506D0A8B902D0A39107D0A38105D015
:10018000A8B902D0A38101D0A391A3B106D0A8BD84
:1001900002D0A39107D0A38105D0A8BD02D0A3812E
:1001A00001D0A391A8B506D0A8BB02D08D9B07D0E3
:1001B0008D8B05D0A8BB02D08D8B01D08D9B8DBBC4
:1001C00006D0A8BD02D08D9B07D08D8B05D0A8BDD1
:1001D00002D08D8B01D08D9BA8B906D0A8BB02D0D0
:1001E0008D9D07D08D8D05D0A8BB02D08D8D01D0FF
:1001F0008D9D8DBD06D0A8BD02D08D9D07D08D8D63
:1002000005D0A8BD02D08D8D01D08D9DA3B306D0A1
:10021000A3B102D08D9F07D08D8F05D0A3B102D09E
:100220008D8F01D08D9FA3B506D08DBB02D0D89005
:1002300007D0D88005D08DBB02D0D88001D0D8900F
:100240008DBF05D002E28D9F06D08D8F04D002E2D3
:100250008D8F01D08D9FA3B706D08DBD02D0D890D1
:1002600007D0D88005D08DBD02D0D88001D0D890DD
:100270008DBF05D002E28D9F06D08D8F04D002E2A3
:100280008D8F01D08D9FA8B502D0A59101D0A581F9
:10029000A8C0A4F0A433A49FA5B102D0A49501D016
:1002A000A485A4C003F00332039E0332039E03C05F
:1002B000A6F0A9B102D0A39D01D0A38DA9B302D00D
:1002C000A39F01D0A38FA9B702D0A39901D0A3897E
:1002D000A9B506D0A9B902D0A39B07D0A38B05D09E
:1002E000A9B902D0A38B01D0A39BA3BB06D0A9BD03
:1002F00002D0A39B07D0A38B05D0A9BD02D0A38BAE
:1003000001D0A39BA9B506D0A9BB02D08D9707D079
:100310008D8705D0A9BB02D08D8701D08D978DB771
:1003200006D0A9BD02D08D9707D08D8705D0A9BD75
:1003300002D08D8701D08D97A9B906D0A9BB02D074
:100340008D9507D08D8505D0A9BB02D08D8501D0B4
:100350008D958DB506D0A9BD02D08D9507D08D8520
:1003600005D0A9BD02D08D8501D08D95A3BD06D045
:10037000A3BB02D08D9307D08D8305D0A3BB02D041
:100380008D8301D08D93A3BF06D08DB702D0D890B6
:1003900007D0D88005D08DB702D0D88001D0D890B2
:1003A0008DB305D002E28D9306D08D8304D002E296
:1003B0008D8301D08D93A3B906D08DB502D0D8908E
:1003C00007D0D88005D08DB502D0D88001D0D89084
:1003D0008DB305D002E28D9306D08D8304D002E266
:1003E0008D8301D08D93A9B502D08D9901D08D89CF
:1003F000A9C090F09033909F8DB902D0909501D014
:10040000908590C002F00232029E0232029E02C02B
:100410008FF003C000F000360090003600900036E8
:100420000090003600900250002600C08EF01200AE
:100430001CEC03F0F288F086F088F28C9D8AF28E34
:10044000330E0B6EBB0E0C6EDF0E0D6E0D2EFED737
:100450000C2EFCD70B2EFAD700000000810EAF6ED9
:10046000AC844ADE969800018D91836AF80E956EF1
:10047000070E836E1A0E0B6E5E0E0C6E6E0E0D6EF8
:100480000D2EFED70C2EFCD70B2EFAD70000836A58
:10049000270EAA6F000EAB6FF3DD2652D8B474D0CE
:1004A000A76B550EAA6F000EAB6FEADD7304016EE9
:1004B000026A000E025A800E006E800E0218005C66
:1004C00002E10150A75D5EE2A7A11ED0A75101087D
:1004D0001BE2A705006E016A000E015A890E002476
:1004E000E96E000E0120EA6EEECFA8F0890EE96EEB
:1004F000000EEA6EA751E926D8B0EA2AEECFA9F09D
:1005000027DE00C0AEF0B5DD890E026E000E036E70
:100510000001A7510226D8B0032A02C0E9FF03C098
:10052000EAFF610EEE5C0EE3890EE96E000EEA6EE4
:10053000A751E926D8B0EA2A200EEE5C006E000E24
:10054000016E0CD0890EE96E000EEA6EA751E92605
:10055000D8B0EA2AEECF00F0000E016E02C0E1FF33
:1005600003C0E2FF00C0E6FF890EE96E000EEA6EEE
:10057000A751E926D8B0EA2AEECFAEF07ADD000125
:10058000A72B94D7736A266A83A211D08DB303D0A8
:100590008DBF01D006D0640EAA6F000EAB6F70DD68
:1005A00005D0800EAA6F000EAB6F6ADDEDD783A079
:1005B00009D08DB107D07EDD740EAA6F000EAB6F2F
:0805C0005FDD8D816AD7FFD7D2
:1006380010EE19F0700E006E010E016EC80EF66E07
:0E064800050EF76E000EF86E74EC00F0120056
:0305C8000D0A0019
:0A05CB00456E636F6465643A20001A
:0105D5000025
:1005D60052697461204D2E200D0A484954205072EC
:1005E6006F6A65637420323031340D0A576169745D
:0E05F600696E6720666F7220446174613E007A
:0E0604000D0A2052656365697665643A200030
:0106120000E7
:0F06130052656365697665204572726F722100CA
:0106220000D7
:0C0623002E2E2E2073656E742E0D0A0022
:09062F004E6F204572726F7200DB
:020000040030CA
:0D000100220F0EFF0181FF0FC00FE00F4026
:00000001FF
