:040000006DEF01F0AF
:1000080000C015F09EAA1CD0576A08D900C096F007
:100018005AAA0BD0630EE16E000EE26E5850E1262C
:10002800D8B0E22A96C0E6FF582A00019651020A83
:1000380001E15A8A9651030A03E15A9A010E266E83
:10004800F2A203D083705A96F29215C000F0110004
:0E005800ACB202D00000FCD7A2C0ADFF120077
:100066000001A16B9EC0E9FF9FC0EAFFEECFA0F0A2
:10007600A051000A0EE0A0C0A2F0EBDF0001A12B08
:10008600A1519E25E96E000E9F21EA6EEECFA0F0EB
:04009600EFD712008E
:10009A0000019DB506D09DB902D05A9E07D05A8E4E
:1000AA0005D09DB902D05A8E01D05A9E5ABE06D0AA
:1000BA009DBD02D05A9E07D05A8E05D09DBD02D052
:1000CA005A8E01D05A9E9DB506D09DBB02D09893F8
:1000DA0007D0988305D09DBB02D0988301D098930E
:1000EA0098B306D09DBD02D0989307D0988305D0C7
:1000FA009DBD02D0988301D098939DB906D09DBB2F
:10010A0002D0989107D0988105D09DBB02D09881E2
:10011A0001D0989198B106D09DBD02D0989107D090
:10012A00988105D09DBD02D0988101D098919DB14A
:10013A0002D05A9C01D05A8C9DB302D05A9401D055
:10014A005A849DB702D05A9201D05A82000E5ABCE4
:10015A00010E5F6E606A006A5ABE002A00505F187C
:10016A005F6E606A000E601A000E606E000E5AB46E
:10017A00010E5D6E5E6A006A98B3002A00505D182F
:10018A005D6E5E6A000E5E1A000E5E6E000E5AB258
:10019A00010E5B6E5C6A006A98B1002A00505B1817
:1001AA005B6E5C6A000E5C1A000E5C6E5D505F1836
:1001BA00006E60505E18016E5B50001A5C50011AA6
:1001CA000050011015E0160E9E6F000E9F6F46DF5D
:1001DA005D505F24006E5B50002600C059F000C0DD
:1001EA00A2F035DF230E00019E6F000E9F6F36DFEF
:1001FA009DB502D05A9001D05A809D339D9F5AB026
:10020A0002D09D9501D09D859DC000F00032009ED0
:0A021A000032009E00C09DF01200AB
:10022400AECF95F0ABA202D0AB98AB8895C000F0EE
:020234001200B6
:100236000900F5CFE6FF0006FBE10106F9E1120031
:10024600580E00018D6F000E8E6FA20E8F6F000E7E
:10025600906F240E896F020E8A6F000E8B6F000E50
:100266008C6FFF0E856FFF0E866F000E876F000E78
:10027600886FFF0E916FFF0E926F000E936F000E48
:10028600946FAC8A900EAB6E948E949C9EAA03D00B
:08029600AECF00F0FBD712000F
:10029E009BC09DF0FBDE00C099F09CC09DF0F6DE89
:1002AE0000C09AF099C001F001360190013601901C
:1002BE00013601900136019001C099F001500026DF
:0C02CE0000C097F000C0A2F0C0DE1200DB
:1002DA00DAEC01F0F288F28EF28C9D8A820E0C6EB4
:1002EA00DD0E0D6E0D2EFED70C2EFCD70000000081
:1002FA005A9A5A98810EAF6EAC84A0DF96985A9695
:10030A00836AF80E956E070E836E1A0E0B6E5E0EDA
:10031A000C6E6E0E0D6E0D2EFED70C2EFCD70B2E0C
:10032A00FAD70000836A270E00019E6F000E9F6FA6
:10033A0095DE2650010A15E10001616A626A836B43
:10034A00846B83A006D063C09BF064C09CF0A2DFDC
:10035A0006D0630E00019E6F000E9F6F7FDE586A03
:06036A00266AE7D7FFD769
:1003B40010EE16F0430E006E010E016E700EF66E16
:0E03C400030EF76E000EF86E1BEC01F0120037
:0D0370004572726F72206174206269740022
:03037D000D0A0066
:01038000007C
:1003810052697461204D2E0D0A4849543430302091
:1003910050726F6A6563740D0A52656164792074E5
:1003A1006F20726563656976652E2E2E200D0A0019
:0103B100004B
:0103B200004A
:020000040030CA
:0D000100220F0EFF0181FF0FC00FE00F4026
:00000001FF
