:02000000E028F6
:10000800CF00030E83019E000A089F008A01400862
:100018008C008B130B1D4A2883120B1181019C0A3B
:1000280003199D0A1D08073A031D1C28A1301C0648
:10003800031D4A289A0A03199B0A15081706031D67
:10004800272816081406031D2D28940195010D1064
:100058008D1513081906031D332818081206031DE9
:100068003828920193018D110D1C40288312051E1A
:100078004028940A0319950A8D1D4528920A0319E8
:10008800930A8312013085069C019D018B1C53281D
:100098008B100630910013308E008D100D108B17C9
:1000A8000C08C0001F088A001E0E8300CF0E4F0EDA
:0200B80009003D
:0C00BA00831210088A000F088200080062
:1000C6008312051A68280D1169280D1591010D195D
:1000D6009328053011020318932806170B30CB001E
:1000E6002630CC005D30CD00CD0B7728CC0B7728A1
:1000F600CB0B772800000000910A051A84280D1101
:1001060085280D151108053A031D902891010D1536
:1001160086010D1013308E0091280D1406136A28DF
:020126000800CF
:1001280083128D1CAB28051DAB2886120B30CB0023
:100138002630CC005D30CD00CD0BA028CC0BA028FC
:10014800CB0BA0280000000013308E00D328063007
:10015800CB001330CC00AD30CD00CD0BB128CC0B8B
:10016800B128CB0BB128000000000D18D3288D1939
:10017800D3280616861763201A30CB005E30CC00D1
:100188006E30CD00CD0BC628CC0BC628CB0BC628AD
:1001980000000519D3280D1CD32886160D14080055
:1001A8005D208A110A128000840A8F0A0319900AB6
:0801B800C003031DD428080058
:1001C00083129C019D019A019B019401950192016A
:1001D00093018D100D108D110D119601970198014D
:1001E00099018E01910134309600383097000F301C
:1001F00098000E3099008501163083168500831211
:1002000086010F30831686008B160B1601178B178D
:1002100081128312810183168111F83081058230A9
:10022000CC00DD30CD00CD0B1329CC0B1329000001
:1002300000000E08133A031921290730831206051E
:100240008E000D1827298D1D272913308E00612956
:100250008D148E018D1C2D29942072298D148E01F0
:100260008D1C33299420722983128D10061686174F
:1002700063208E0172298D108E0172298D100B3032
:10028000CB002630CC005D30CD008312CD0B45294C
:10029000CC0B4529CB0B45290000000086011A3004
:1002A000CB005E30CC006E30CD00CD0B5529CC0B91
:1002B0005529CB0B55290000051A5F290D108E0119
:1002C00072290E08043A031928290E08063A031960
:1002D0002E290E08023A031934290E08003A031990
:0802E0003B293E290F29732977
:02400E00FA3F77
:00000001FF
