:02000000DF28F7
:10000800CF00030E83019E000A089F008A01400862
:100018008C008B130B1D4A2883120B1181019C0A3B
:1000280003199D0A1D08073A031D1C28A1301C0648
:10003800031D4A289A0A03199B0A15081706031D67
:10004800272816081406031D2D28940195010D1064
:100058008D1513081906031D332818081206031DE9
:100068003828920193018D110D1C40288312051E1A
:100078004028940A0319950A8D1D4528920A0319E8
:10008800930A8312013085069C019D018B1C53281D
:100098008B100630910013308E008D100D108B17C9
:1000A8000C08C0001F088A001E0E8300CF0E4F0EDA
:0200B80009003D
:0C00BA00831210088A000F088200080062
:1000C6008312051A68280D1169280D1591010D195D
:1000D6009228053011020318922806171A30CB0011
:1000E6005E30CC006E30CD00CD0B7728CC0B772858
:1000F600CB0B77280000910A051A83280D11842856
:100106000D151108053A031D8F2891010D1586015D
:100116000D1013308E0090280D1406136A2808005F
:1001260083128D1CAA28051DAA280B30CB00263069
:10013600CC005D30CD00CD0B9E28CC0B9E28CB0B82
:100146009E2800000000861213308E00D22806304A
:10015600CB001330CC00AD30CD00CD0BB028CC0B8E
:10016600B028CB0BB028000000000D18D2288D193E
:10017600D2280616861763201A30CB005E30CC00D4
:100186006E30CD00CD0BC528CC0BC528CB0BC528B2
:1001960000000519D2280D1CD22886160D14080059
:1001A6005D208A110A128000840A8F0A0319900AB8
:0801B600C003031DD32808005B
:1001BE0083129C019D019A019B019401950192016C
:1001CE0093018D100D108D110D119601970198014F
:1001DE0099018E01910134309600383097000F301E
:1001EE0098000E3099008501163083168500831213
:1001FE0086010F30831686008B160B1601178B1790
:10020E0081128312810183168111F83081058230AB
:10021E00CC00DD30CD00CD0B1229CC0B1229000005
:10022E0000000E08133A0319202907308312060521
:10023E008E000D1826298D1D262913308E00632958
:10024E008D148E018D1C2C29932074298D148E01F2
:10025E008D1C32299320742983128D100616861751
:10026E0006170D148E017429831206138D108E013C
:10027E0074298D100B30CB002630CC005D30CD00B4
:10028E008312CD0B4729CC0B4729CB0B47290000F6
:10029E00000086011A30CB005E30CC006E30CD00EF
:1002AE00CD0B5729CC0B5729CB0B57290000051A1C
:1002BE0061290D108E0174290E08043A031927299D
:1002CE000E08063A03192D290E08023A031933298E
:0E02DE000E08003A03193B2940290E29752904
:02400E00FA3F77
:00000001FF
