:02000000DE28F8
:10000800FF00030E8301B2000A08B3008A017008DA
:10001800A0008B130B1D49280B118101B00A03198D
:10002800B10A3108073A031D1B28A1303006031D09
:100038004928AE0A0319AF0A29082B06031D2628EA
:100048002A082806031D2C28A801A9012110A1159A
:1000580027082D06031D32282C082606031D3728DD
:10006800A601A701A111211C3E28051E3E28A80AA9
:100078000319A90AA11D4328A60A0319A70A0130D2
:10008800850601308506B001B1018B1C52288B1002
:100098000630A5001330A200A11021108B172008EC
:1000A800F00033088A00320E8300FF0E7F0E09002D
:0C00B800831224088A002308820008003C
:1000C4008312051A6728211168282115A501211911
:1000D4009128053025020318912806171A30FB00D1
:1000E4005E30FC006E30FD00FD0B7628FC0B76289C
:1000F400FB0B76280000A50A051A82282111832803
:1001040021152508053A031D8E28A5012115860110
:1001140021101330A2008F28211406136928080027
:100124008312A11CA928051DA9280B30FB00263029
:10013400FC005D30FD00FD0B9D28FC0B9D28FB0B96
:100144009D280000000086121330A200D12806303A
:10015400FB001330FC00AD30FD00FD0BAF28FC0BA1
:10016400AF28FB0BAF28000000002118D128A119EB
:10017400D1280616861762201A30FB005E30FC0078
:100184006E30FD00FD0BC428FC0BC428FB0BC428F7
:1001940000000519D128211CD12886162114080035
:1001A4005C208A110A128000840AA30A0319A40A93
:0801B400F003031DD22808002E
:1001BC008312B001B101AE01AF01A801A901A601E2
:1001CC00A701A1102110A1112111AA01AB01AC01B1
:1001DC00AD01A201A5013430AA003830AB000F30BC
:1001EC00AC000E30AD0085011630831685008312ED
:1001FC0086010F308316860007309F008B160B1676
:10020C0001178B1781128312810183168111F8302B
:10021C0081058230FC00DD30FD00FD0B1329FC0B49
:10022C0013290000000083122208133A0319212914
:10023C0007300605A20021182729A11D27291330F4
:10024C00A2006129A114A201A11C2D2992207229BE
:10025C00A114A201A11C332992207229A110061607
:10026C00861706172114A20172290613A110A201E8
:10027C007229A1100B30FB002630FC005D30FD0014
:10028C00FD0B4629FC0B4629FB0B46290000000000
:10029C0086011A30FB005E30FC006E30FD00FD0B59
:1002AC005529FC0B5529FB0B55290000051A5F2914
:1002BC002110A20172292208043A031928292208C4
:1002CC00063A03192E292208023A03193429220866
:0C02DC00003A03193B293F290F29732920
:02400E00CA20C6
:00000001FF
