:02000000E128F5
:10000800FF00030E8301B2000A08B3008A017008DA
:10001800A0008B130B1D49280B118101B00A03198D
:10002800B10A3108073A031D1B28A1303006031D09
:100038004928AE0A0319AF0A29082B06031D2628EA
:100048002A082806031D2C28A801A9012110A1159A
:1000580027082D06031D32282C082606031D3728DD
:10006800A601A701A111211C3E28051E3E28A80AA9
:100078000319A90AA11D4328A60A0319A70A0130D2
:10008800850601308506B001B1018B1C52288B1002
:100098000630A5001330A200A11021108B172008EC
:1000A800F00033088A00320E8300FF0E7F0E09002D
:0E00B8008312031324088A0023088200080024
:1000C60083120313051A692821116A282115A5012F
:1000D60021199328053025020318932806171A308C
:1000E600FB005E30FC006E30FD00FD0B7828FC0B3B
:1000F6007828FB0B78280000A50A051A8428211108
:10010600852821152508053A031D9028A5012115E6
:10011600860121101330A2009128211406136B28A2
:020126000800CF
:1001280083120313A11CAC28051DAC280B30FB005F
:100138002630FC005D30FD00FD0BA028FC0BA0283C
:10014800FB0BA0280000000086121330A200D42860
:100158000630FB001330FC00AD30FD00FD0BB2286B
:10016800FC0BB228FB0BB228000000002118D42891
:10017800A119D4280616861763201A30FB005E30B2
:10018800FC006E30FD00FD0BC728FC0BC728FB0BDD
:10019800C72800000519D428211CD4288616211444
:0201A80008004D
:1001AA005C208A110A128000840AA30A0319A40A8D
:0801BA00F003031DD528080025
:1001C20083120313B001B101AE01AF01A801A9016D
:1001D200A601A701A1102110A1112111AA01AB01B1
:1001E200AC01AD01A201A5013430AA003830AB0048
:1001F2000F30AC000E30AD0085011630831685003D
:10020200831286010F308316860007309F008B16FB
:100212000B1601178B17811283128101831681112C
:10022200F83081058230FC00DD30FD00FD0B17291E
:10023200FC0B17290000000083122208133A03194D
:10024200252907300605A20021182B29A11D2B29DB
:100252001330A2006529A114A201A11C3129942006
:100262007629A114A201A11C372994207629A11074
:100272000616861706172114A20176290613A11065
:10028200A2017629A1100B30FB002630FC005D3064
:10029200FD00FD0B4A29FC0B4A29FB0B4A290000F1
:1002A200000086011A30FB005E30FC006E30FD005B
:1002B200FD0B5929FC0B5929FB0B59290000051A82
:1002C20063292110A20176292208043A03192C2954
:1002D2002208063A031932292208023A0319382958
:0E02E2002208003A03193F29432913297729DE
:02400E004A2F37
:00000001FF
