:02000000E928ED
:10000800FF00030E8301B2000A08B3008A017008DA
:10001800A0008B130B1D47280B118101A80A031997
:10002800A90A2908073A031D1B28A1302806031D21
:100038004728A60A0319A70A2B083106031D2628F4
:1000480030082A06031D2C28AA01AB012110A1158E
:100058002D082F06031D32282E082C06031D3728CD
:10006800AC01AD01A111211C3E28051E3E28AA0A9B
:100078000319AB0AA11D4328AC0A0319AD0A0130C4
:100088008506A801A9018B1C51288B108601063012
:10009800A5001330A200A11021108B172008F00032
:0E00A80033088A00320E8300FF0E7F0E09001F
:0E00B6008312031324088A0023088200080026
:1000C40083120313051A6828211169282115A50133
:1000D40021199328053025020318932806170B309D
:1000E400FB002630FC005D30FD00FD0B7728FC0B87
:1000F4007728FB0B772800000000A50A051A84283E
:100104002111852821152508053A031D9028A501EC
:100114002115860121101330A20091282114061301
:040124006A2808003D
:1001280083120313A11CAC28051DAC2886120B30C2
:10013800FB002630FC005D30FD00FD0BA128FC0B08
:10014800A128FB0BA128000000001330A200DC2826
:100158000630FB001330FC00AD30FD00FD0BB2286B
:10016800FC0BB228FB0BB228000000002118DC2889
:10017800A119DC280616861762201A30FB005E30AB
:10018800FC006E30FD00FD0BC728FC0BC728FB0BDD
:10019800C72800002208043A0319DA282208063A78
:1001A800031DD9280519D928DA28DC288616211430
:0201B80008003D
:1001BA005B208A110A128000840AA30A0319A40A7E
:0801CA00F003031DDD2808000D
:1001D200343083120313B0003830B1000F30AE0058
:1001E2000E30AF008501163083168500831286011A
:1001F2000F30831686000F3083129F008B160B166A
:10020200831601178B1781128312810183168111C4
:10021200F83081058230FC00DD30FD00FD0B0F2936
:10022200FC0B0F290000000083122208133A031965
:100232001D2907300605A20021182329A11D232903
:100242001330A2004D29A114A201A11C2929942036
:100252005E29A114A201A11C2F2994205E29A110BC
:10026200061686176220A2015E29A110A2015E294C
:10027200A11086011A30FB005E30FC006E30FD00DA
:10028200FD0B4129FC0B4129FB0B41290000051AFA
:100292004B292110A2015E292208043A03192429BC
:1002A2002208063A03192A292208023A0319302998
:0E02B2002208003A0319362939290B295F2941
:02400E006A2125
:00000001FF
