:02000000DD28F9
:10000800FF00030E8301B2000A08B3008A017008DA
:10001800A0008B130B1D47280B118101B00A03198F
:10002800B10A3108073A031D1B28A1303006031D09
:100038004728AE0A0319AF0A29082B06031D2628EC
:100048002A082806031D2C28A801A9012110A1159A
:1000580027082D06031D32282C082606031D3728DD
:10006800A601A701A111211C3E28051E3E28A80AA9
:100078000319A90AA11D4328A60A0319A70A0130D2
:100088008506B001B1018B1C50288B100630A500E5
:100098001330A200A11021108B172008F00033089C
:0C00A8008A00320E8300FF0E7F0E09005C
:0C00B400831224088A0023088200080040
:1000C0008312051A6528211166282115A501211919
:1000D0009028053025020318902806170B30FB00E6
:1000E0002630FC005D30FD00FD0B7428FC0B7428ED
:1000F000FB0B742800000000A50A051A81282111B5
:10010000822821152508053A031D8D28A5012115F2
:10011000860121101330A2008E28211406136728AF
:020120000800D5
:100122008312A11CA828051DA82886120B30FB00EB
:100132002630FC005D30FD00FD0B9D28FC0B9D2848
:10014200FB0B9D28000000001330A200D0280630CF
:10015200FB001330FC00AD30FD00FD0BAE28FC0BA4
:10016200AE28FB0BAE28000000002118D028A119F0
:10017200D0280616861760201A30FB005E30FC007D
:100182006E30FD00FD0BC328FC0BC328FB0BC328FC
:1001920000000519D028211CD02886162114080039
:1001A2005A208A110A128000840AA30A0319A40A97
:0801B200F003031DD128080031
:1001BA008312B001B101AE01AF01A801A901A601E4
:1001CA00A701A1102110A1112111AA01AB01AC01B3
:1001DA00AD01A201A5013430AA003830AB000F30BE
:1001EA00AC000E30AD0085011630831685008312EF
:1001FA0086010F308316860007309F008B160B1678
:10020A0001178B1781128312810183168111F8302D
:10021A0081058230FC00DD30FD00FD0B1229FC0B4C
:10022A0012290000000083122208133A0319202918
:10023A0007300605A20021182629A11D26291330F8
:10024A00A2005E29A114A201A11C2C2991206F29C8
:10025A00A114A201A11C322991206F29A11006160E
:10026A0086176020A2016F29A110A2016F29A1108F
:10027A000B30FB002630FC005D30FD00FD0B4329EE
:10028A00FC0B4329FB0B43290000000086011A30AE
:10029A00FB005E30FC006E30FD00FD0B5229FC0BAA
:1002AA005229FB0B52290000051A5C292110A201D0
:1002BA006F292208043A031927292208063A031942
:1002CA002D292208023A031933292208003A031970
:0802DA0039293C290E29702985
:02400E00CA20C6
:00000001FF
