:02000000DC28FA
:10000800FF00030E8301B2000A08B3008A017008DA
:10001800A0008B130B1D47280B118101B00A03198F
:10002800B10A3108073A031D1B28A1303006031D09
:100038004728AE0A0319AF0A29082B06031D2628EC
:100048002A082806031D2C28A801A9012110A1159A
:1000580027082D06031D32282C082606031D3728DD
:10006800A601A701A111211C3E28051E3E28A80AA9
:100078000319A90AA11D4328A60A0319A70A0130D2
:100088008506B001B1018B1C50288B100630A500E5
:100098001330A200A11021108B172008F00033089C
:0C00A8008A00320E8300FF0E7F0E09005C
:0C00B400831224088A0023088200080040
:1000C0008312051A6528211166282115A501211919
:1000D0008F280530250203188F2806171A30FB00D9
:1000E0005E30FC006E30FD00FD0B7428FC0B7428A4
:1000F000FB0B74280000A50A051A8028211181280D
:1001000021152508053A031D8C28A5012115860116
:1001100021101330A2008D2821140613672808002F
:100120008312A11CA728051DA7280B30FB00263031
:10013000FC005D30FD00FD0B9B28FC0B9B28FB0B9E
:100140009B280000000086121330A200CF28063042
:10015000FB001330FC00AD30FD00FD0BAD28FC0BA7
:10016000AD28FB0BAD28000000002118CF28A119F5
:10017000CF280616861760201A30FB005E30FC0080
:100180006E30FD00FD0BC228FC0BC228FB0BC22801
:1001900000000519CF28211CCF288616211408003D
:1001A0005A208A110A128000840AA30A0319A40A99
:0801B000F003031DD028080034
:1001B8008312B001B101AE01AF01A801A901A601E6
:1001C800A701A1102110A1112111AA01AB01AC01B5
:1001D800AD01A201A5013430AA003830AB000F30C0
:1001E800AC000E30AD0085011630831685008312F1
:1001F80086010F308316860007309F008B160B167A
:1002080001178B1781128312810183168111F8302F
:1002180081058230FC00DD30FD00FD0B1129FC0B4F
:1002280011290000000083122208133A03191F291C
:1002380007300605A20021182529A11D25291330FC
:10024800A2005D29A114A201A11C2B2990206E29CE
:10025800A114A201A11C312990206E29A110061613
:1002680086176020A2016E29A110A2016E29A11093
:100278000B30FB002630FC005D30FD00FD0B4229F1
:10028800FC0B4229FB0B42290000000086011A30B2
:10029800FB005E30FC006E30FD00FD0B5129FC0BAD
:1002A8005129FB0B51290000051A5B292110A201D5
:1002B8006E292208043A031926292208063A031946
:1002C8002C292208023A031932292208003A031974
:0802D80038293B290D296F298B
:02400E00CA20C6
:00000001FF
