:02000000E028F6
:10000800FF00030E8301B2000A08B3008A017008DA
:10001800A0008B130B1D47280B118101B00A03198F
:10002800B10A3108073A031D1B28A1303006031D09
:100038004728AE0A0319AF0A29082B06031D2628EC
:100048002A082806031D2C28A801A9012110A1159A
:1000580027082D06031D32282C082606031D3728DD
:10006800A601A701A111211C3E28051E3E28A80AA9
:100078000319A90AA11D4328A60A0319A70A0130D2
:100088008506B001B1018B1C50288B100630A500E5
:100098001330A200A11021108B172008F00033089C
:0C00A8008A00320E8300FF0E7F0E09005C
:0E00B4008312031324088A0023088200080028
:1000C20083120313051A6728211168282115A50137
:1000D20021199228053025020318922806170B30A1
:1000E200FB002630FC005D30FD00FD0B7628FC0B8A
:1000F2007628FB0B762800000000A50A051A832843
:100102002111842821152508053A031D8F28A501F0
:100112002115860121101330A20090282114061304
:040122006928080040
:1001260083120313A11CAB28051DAB2886120B30C6
:10013600FB002630FC005D30FD00FD0BA028FC0B0B
:10014600A028FB0BA028000000001330A200D32833
:100156000630FB001330FC00AD30FD00FD0BB1286E
:10016600FC0BB128FB0BB128000000002118D32896
:10017600A119D3280616861761201A30FB005E30B7
:10018600FC006E30FD00FD0BC628FC0BC628FB0BE1
:10019600C62800000519D328211CD3288616211449
:0201A60008004F
:1001A8005A208A110A128000840AA30A0319A40A91
:0801B800F003031DD428080028
:1001C00083120313B001B101AE01AF01A801A9016F
:1001D000A601A701A1102110A1112111AA01AB01B3
:1001E000AC01AD01A201A5013430AA003830AB004A
:1001F0000F30AC000E30AD0085011630831685003F
:10020000831286010F3083168600073083129F0009
:100210008B160B16831601178B178112831281011F
:1002200083168111F83081058230FC00DD30FD003D
:10023000FD0B1829FC0B182900000000831222086E
:10024000133A0319262907300605A20021182C2984
:10025000A11D2C291330A2006429A114A201A11C04
:10026000322993207529A114A201A11C38299320B9
:100270007529A110061686176120A2017529A11003
:10028000A2017529A1100B30FB002630FC005D3067
:10029000FD00FD0B4929FC0B4929FB0B49290000F6
:1002A000000086011A30FB005E30FC006E30FD005D
:1002B000FD0B5829FC0B5829FB0B58290000051A87
:1002C00062292110A20175292208043A03192D2957
:1002D0002208063A031933292208023A0319392958
:0E02E0002208003A03193F29422914297629E1
:02400E006A2125
:00000001FF
