:02000000DF28F7
:10000800FF00030E8301B2000A08B3008A017008DA
:10001800A0008B130B1D47280B118101B00A03198F
:10002800B10A3108073A031D1B28A1303006031D09
:100038004728AE0A0319AF0A29082B06031D2628EC
:100048002A082806031D2C28A801A9012110A1159A
:1000580027082D06031D32282C082606031D3728DD
:10006800A601A701A111211C3E28051E3E28A80AA9
:100078000319A90AA11D4328A60A0319A70A0130D2
:100088008506B001B1018B1C50288B100630A500E5
:100098001330A200A11021108B172008F00033089C
:0C00A8008A00320E8300FF0E7F0E09005C
:0E00B4008312031324088A0023088200080028
:1000C20083120313051A6728211168282115A50137
:1000D20021199128053025020318912806171A3094
:1000E200FB005E30FC006E30FD00FD0B7628FC0B41
:1000F2007628FB0B76280000A50A051A8228211112
:10010200832821152508053A031D8E28A5012115EE
:10011200860121101330A2008F28211406136928AA
:020122000800D3
:1001240083120313A11CAA28051DAA280B30FB0067
:100134002630FC005D30FD00FD0B9E28FC0B9E2844
:10014400FB0B9E280000000086121330A200D22868
:100154000630FB001330FC00AD30FD00FD0BB02871
:10016400FC0BB028FB0BB028000000002118D2289B
:10017400A119D2280616861761201A30FB005E30BA
:10018400FC006E30FD00FD0BC528FC0BC528FB0BE5
:10019400C52800000519D228211CD228861621144E
:0201A400080051
:1001A6005A208A110A128000840AA30A0319A40A93
:0801B600F003031DD32808002B
:1001BE0083120313B001B101AE01AF01A801A90171
:1001CE00A601A701A1102110A1112111AA01AB01B5
:1001DE00AC01AD01A201A5013430AA003830AB004C
:1001EE000F30AC000E30AD00850116308316850041
:1001FE00831286010F3083168600073083129F000C
:10020E008B160B16831601178B1781128312810121
:10021E0083168111F83081058230FC00DD30FD003F
:10022E00FD0B1729FC0B1729000000008312220872
:10023E00133A0319252907300605A20021182B2988
:10024E00A11D2B291330A2006529A114A201A11C06
:10025E00312992207629A114A201A11C37299220BE
:10026E007629A1100616861706172114A2017629E3
:10027E000613A110A2017629A1100B30FB00263027
:10028E00FC005D30FD00FD0B4A29FC0B4A29FB0BDF
:10029E004A290000000086011A30FB005E30FC0087
:1002AE006E30FD00FD0B5929FC0B5929FB0B59290A
:1002BE000000051A63292110A20176292208043AAA
:1002CE0003192C292208063A031932292208023A68
:1002DE00031938292208003A03193F294329132903
:0202EE0077296E
:02400E006A2125
:00000001FF
