:0400000017EF03F003
:1000080000C015F0F2A40DD0F2940001DA4BDB2BFE
:10001800DB51070A02E1A10EDA1903E1817EDA6BEE
:10002800DB6BF0A203D00001F092D97915C000F083
:020038001100B5
:0C003A00100E0D6E0D2EFED700001200FF
:10004600080E0C6E230E0D6E0D2EFED70C2EFCD751
:02005600120096
:040058000000120092
:10005C000001F9BF02D0839E01D0838EF9BD02D07E
:10006C00839C01D0838CF9BB02D0839A01D0838A04
:10007C00F9B902D0839801D08388DCB502D083848F
:10008C0001D083948386E2DF8396F9B702D0839EF6
:10009C0001D0838EF9B502D0839C01D0838CF9B347
:1000AC0002D0839A01D0838AF9B102D0839801D00F
:1000BC008388DCB502D0838401D083948386C6DF29
:0E00CC008396DCA502D0B9DF01D0B1DF1200AF
:1000DA00086A096A100E0C6E013408360936045093
:1000EA00085E0550D8A0053C095ED8B007D0045078
:1000FA0008260550D8B0053C0926D89000360136A6
:06010A000C2EEAD71200E2
:100110000134083609360450085E0550D8A0053C65
:10012000095E003601360F0E0C6E013408360936B2
:10013000045000A006D0085E0550D8A0053C095E1A
:1001400005D008260550D8B0053C092600360136F2
:100150000C2EEBD700B006D0045008260550D8B0BE
:08016000053C09260000120015
:100168000001F66B050EF65D0AE2F651F425E16E24
:10017800000EF521E26E200EE66EF62BF3D7F6514F
:10018800F425E16E000EF521E26EE66AF607F651F7
:10019800F425F76F000EF521F86F0A0E046E000EB5
:1001A800056EF2C000F0F3C001F093DF08C000F064
:1001B80009C001F0300E0026F7C0E1FFF8C0E2FFE9
:1001C80000C0E6FF0A0E046E000E056EF2C000F0D5
:1001D800F3C001F07EDF00C0F2F001C0F3F0000EC2
:1001E800011802E1000E001801E102D0F607CFD78E
:0201F8001200F3
:0E01FA000001DC95F2C0F9F02CDFDC8512006C
:100208000450000A08E10550000A05E1FF0E006EDF
:100218007F0E016E12000D6A096A086A015000100B
:10022800D8B4000C015005180A6E0ABE0D1E0B6AE0
:1002380005AE05D0041E051E042AD8B4052A01AE51
:1002480005D0001E011E002AD8B4012A015005104D
:100258000A6E0ABE10D058DF0BB020D00DAE000CCD
:10026800001E011E002AD8B4012A081E091E082AE9
:10027800D8B4092A000C05AE0DD001BE07D0015034
:10028800096E0050086E016A006AE8D7016A006AC0
:10029800002A000C011E001E0B2ADDD7082AD8B43C
:1002A800092A0450085CD8A4D9D70550095CD8A4F9
:1002B800D5D7096A086A002AD8B4012A01AECED770
:0602C8000000FF0C120013
:1002CE000001EE6BEF6BE8C0F0F0E9C0F1F0800ECC
:1002DE00E919006E800E005C02E1000EE85D0BE293
:1002EE00010EEE6F000EEF6FE8510008F06FE9C0DF
:1002FE00F1F0000EF157F0C0F2F0F1C0F3F0EAC0E9
:10030E00F4F0EBC0F5F029DF060EEC6F000EED6F8A
:10031E00000E006EED51005C02E1EC51000819E296
:10032E00EC51EA25E16EED51EB21E26E010EEC5D32
:10033E00006E000EED59016E0050EA25E96E015077
:10034E00EB21EA6EEECFE6FF010EEC5F000EED5BE9
:10035E00DFD7EAC0E1FFEBC0E2FF200EE66EEE5102
:10036E00EF111AE0EC6BED6BEC51EA25E96EED51F5
:10037E00EB21EA6EEE50200A03E1EC4BED2BF4D7A5
:10038E00010EEC5F000EED5BEC51EA25E16EED51D6
:0A039E00EB21E26E2D0EE66E120058
:1003A80010D0800E0001E86F1AD0C00EE86F17D089
:1003B800940EE86F14D0D40EE86F11D0800EE86F59
:1003C8000ED00001E851010AECE0E851020AEDE024
:1003D800E851030AEDE0E851040AEDE0EFD7E9053A
:1003E800006EE851002600C0E8F000C0F9F032DEE7
:1003F800DC95EC6BEC51EA25E96E000EEB21EA6E18
:10040800EE520BE0EC51EA25E96E000EEB21EA6EA4
:0E041800EECFF2F0EEDEEC2BEDD7DC8512001D
:10042600959695949598959A959C959E8396839482
:10043600839E839C839A839803DE02DE01DE838A91
:100446008388838606DE8396FBDD838602DE8396BB
:10045600F7DD8386FEDD8396F3DD83988386F9DDFB
:100466008396EEDD8386F5DD8396839A838E838677
:10047600F0DD8396E5DD839E83888386EADD8396B9
:1004860083988386E6DD8396DBDD8386E2DD8396CD
:1004960083888386DEDD8396D3DD83988386D9DDE4
:1004A6008396838E838C838A83888386D2DD839624
:0804B600C7DD0001DC85120026
:1004BE000900F5CFE6FF0006FBE10106F9E11200A7
:1004CE00010E0001F96FC3DD010EE86F010EE96F39
:1004DE00390EEA6F000EEB6F60DF020EE86F010E51
:0E04EE00E96F270EEA6F000EEB6F57DF12006A
:1004FC00826A0001DD51010FD56FD55100086FE202
:10050C00D505E86FE96B000EE95BDF0EEA6F000EB4
:10051C00EB6FD7DE020EE86F010EE96F160EEA6F75
:10052C00000EEB6F3BDF020EE86F070EE96FDF0E7C
:10053C00EA6F000EEB6F32DF020EE86F010EE96F0F
:10054C00300EEA6F000EEB6F29DF020EE86F0D0E16
:10055C00E96F370EEA6F000EEB6F20DFD505E66F03
:10056C00E76B000EE75B0A0E046E000E056EE6C02C
:10057C0000F0E7C001F042DE00C0D7F00A0E046EB6
:10058C00000E056EE6C000F0E7C001F037DE08C0D3
:10059C0000F009C001F000C0D6F08380F00E00011D
:1005AC00D711826E070E0C6E7D0E0D6E0D2EFED7C2
:1005BC000C2EFCD783908382F00ED611826E839220
:1005CC00826A060E0B6E0B0E0C6EE30E0D6E0D2E6C
:1005DC00FED70C2EFCD70B2EFAD7D5078ED71200D0
:1005EC00020E0B6E450E0C6EA90E0D6E0D2EFED767
:1005FC000C2EFCD70B2EFAD70000000080828288CC
:10060C00829A100E0B6E390E0C6E0D0E0D6E0D2E99
:10061C00FED70C2EFCD70B2EFAD7000000008080E2
:02062C001200BA
:10062E00D9EC04F07F0E936E826A946A956A836A9F
:10063E00956A070EC16EF0DE010EF96F08DD0C0E25
:10064E00F96F05DD939EDA6BDB6BD76AD66AD56AD6
:10065E00D58CD58EF294F28AF198F088D999F28ED3
:10066E00D98BD985D9B502D0D99301D0D983D9B335
:10067E0002D0D99701D0D987D9B702D0D99D01D050
:10068E00D98DDC83DCB302D0DC9101D0DC81DCB10E
:10069E0002D0D99F01D0D98FD9BF02D0D99901D01C
:1006AE00D989946A956A826A010EF96FD0DC010EBF
:1006BE00E86F010EE96F740EEA6F000EEB6F6DDEE0
:1006CE00020EE86F010EE96F530EEA6F000EEB6F2C
:1006DE0064DE060E0B6E130E0C6EAD0E0D6E0D2E31
:1006EE00FED70C2EFCD70B2EFAD700000000010E01
:1006FE00F96FADDC010EE86F010EE96F5A0EEA6F6D
:10070E00000EEB6F4ADE020EE86F010EE96F690E06
:10071E00EA6F000EEB6F41DE0B0E0B6E260E0C6EAB
:10072E005D0E0D6E0D2EFED70C2EFCD70B2EFAD7AE
:10073E0000000000C5DE806A826A926AFF0E806E3B
:10074E00080E826E83808382030E0B6E8A0E0C6EF1
:10075E00550E0D6E0D2EFED70C2EFCD70B2EFAD786
:10076E0000000000806AD99181AC11D0D9AB0FD0B6
:10077E008298828A040E806E820E0C6EDD0E0D6ED5
:10078E000D2EFED70C2EFCD700000000EDD781BC3D
:10079E0065D0D9AB63D0D99B010EE86F010EE96F1E
:1007AE00420EEA6F000EEB6FF8DD0F0ED86F020EE1
:1007BE00E86F010EE96F7E0EEA6F000EEB6FEDDD56
:1007CE00060E0B6E130E0C6EAD0E0D6E0D2EFED7AD
:1007DE000C2EFCD70B2EFAD700000000D8C0DDF08F
:1007EE00000ED8BFFF0EDE6F82DE010EF96F2FDC1A
:1007FE0081A234D0D9B91CD0F178D9B115D0010E5F
:10080E00F96F25DC010EE86F010EE96FC70EEA6F76
:10081E00000EEB6FC2DD020EE86F010EE96FB80E2F
:10082E00EA6F000EEB6FB9DDDCA102D08086DC91A1
:10083E00DCA302D0D4DEDC93DCB10ED0D9B10CD067
:10084E00010EF96F04DC010EE86F010EE96F9C0ECC
:10085E00EA6F000EEB6FA1DDD981CAD7010EF96FD9
:10086E002EEC00F081BA0DD0D997DCA109D0010E83
:10087E00E86F010EE96F8C0EEA6F000EEB6F8DDDE7
:10088E00F1D781B006D0D9A304D0D9B702D0D9936D
:10089E00F8D781A025D0D9B323D0D983D98BD987C6
:1008AE00010EF96F2EEC00F0010EE86F010EE96FEC
:1008BE00AB0EEA6F000EEB6F70DD030E0B6E8A0E41
:1008CE000C6E550E0D6E0D2EFED70C2EFCD70B2E6C
:1008DE00FAD7000000008084828A8298F1DDD9D791
:0408EE0043D7FFD716
:1009B20010EE16F0BF0E006E010E016EF20EF66E14
:0E09C200080EF76E000EF86E5FEC02F01200E9
:1008F20020202020202020202020202020202020F6
:0109020000F4
:0909030052656164792E2E2E006C
:07090C0074696D653A2000DB
:0209130073006F
:090915004E6F20547261696E00FE
:10091E00547261696E20417070726F6163686573A5
:01092E0000C8
:07092F004849543430300048
:0F093600425249444745205452414646494300E6
:0B094500434F4E54524F4C4C455200A3
:0A0950004D48415A4F2C204D2E0057
:0E095A0031357320436F756E74646F776E00D5
:10096800545241494E204F4E204252494447450077
:0F097800547261696E2053746F707065642E0045
:0D098700547261696E2050617373656400E5
:0F0994006F6E2074686520627269646765210068
:0E09A3005468657265277320612063617200DD
:020000040030CA
:0D000100021F1EFF8381FF0FC00FE00F40A4
:00000001FF
