:040000000EEF02F00D
:1000080000C015F0E1CF16F0E2CF17F09EAA16D087
:1000180000019E6B4BD900C0DEF0F20EE16E000EBF
:10002800E26E0001B251E126D8B0E22A00C0E6FF34
:10003800B22BDE510D0A02E1010E6F6EF2A204D05E
:1000480000018372DF91F292F0A004D00001837462
:10005800DF91F090F0A204D000018370DF91F0925C
:0E00680015C000F016C0E1FF17C0E2FF110046
:0E007600ACB202D00000FCD738C1ADFF1200C2
:10008400F00E01013415026E02C0DDF00F0E3415BE
:100094000001DC6F02C001F00136019001360190CD
:1000A40001C003F003B402D0DF9901D0DF8901C09D
:1000B40004F004360490DFB902D0049401D004841F
:1000C40004B406D004B802D0DF9307D0DF8305D090
:1000D40004B802D0DF8301D0DF93DFB306D004BCC1
:1000E40002D0DF9307D0DF8305D004BC02D0DF83C6
:1000F40001D0DF9304B406D004BA02D0DF9507D050
:10010400DF8505D004BA02D0DF8501D0DF95DFB5E5
:1001140006D004BC02D0DF9507D0DF8505D004BC2F
:1001240002D0DF8501D0DF9504B806D004BA02D02E
:10013400DF9707D0DF8705D004BA02D0DF8701D06C
:10014400DF97DFB706D004BC02D0DF9707D0DF8784
:1001540005D004BC02D0DF8701D0DF97DFB302D023
:10016400049001D00480DFB502D0049201D004824F
:10017400DFB702D0049401D0048404C000F012005C
:100184000101376B34C1E9FF35C1EAFFEECF36F127
:100194003651000A0EE036C138F16BDF0101372B0E
:1001A40037513425E96E000E3521EA6EEECF36F173
:0401B400EFD712006F
:1001B8000F0E01013415026E02C0DCF002C001F01E
:1001C800013601900136019001C003F003B403D059
:1001D8000001DF9902D00001DF8901C004F0043674
:1001E8000490DFB902D0049401D0048404B406D08A
:1001F80004B802D0DF9307D0DF8305D004B802D05B
:10020800DF8301D0DF93DFB306D004BC02D0DF93D5
:1002180007D0DF8305D004BC02D0DF8301D0DF9391
:1002280004B406D004BA02D0DF9507D0DF8505D024
:1002380004BA02D0DF8501D0DF95DFB506D004BC53
:1002480002D0DF9507D0DF8505D004BC02D0DF855A
:1002580001D0DF9504B806D004BA02D0DF9707D0E2
:10026800DF8705D004BA02D0DF8701D0DF97DFB778
:1002780006D004BC02D0DF9707D0DF8705D004BCC6
:1002880002D0DF8701D0DF97DFB302D0049001D01E
:100298000480DFB502D0049201D00482DFB702D017
:0C02A800049601D0048604C000F012008F
:1002B400AECFE8F0ABA202D0AB98AB88E8C000F0B8
:0202C400120026
:1002C600760E0001E46F000EE56F380EE66F010E44
:1002D600E76FB40EE06F020EE16F000EE26F000EE4
:1002E600E36FFF0EED6FFF0EEE6F000EEF6F000E69
:1002F600F06FFF0EE96FFF0EEA6F000EEB6F000E58
:10030600EC6FAC8A900EAB6E948E949C9EAA03D032
:08031600AECF00F0FBD712008E
:10031E000900F5CFE6FF0006FBE10106F9E1120048
:10032E00C00E0101346F000E356F25DF020E386FDF
:10033E009BDE820E0C6EDD0E0D6E0D2EFED70C2E7C
:10034E00FCD700000000F20E0101346F000E356F75
:10035E0012DF030E386F88DEB30E0101346F000E0C
:06036E00356F09DF1200EB
:100374000101326B800E3219006E800E400A005C5F
:1003840022E2F20EE96E000EEA6E3251E926000E08
:1003940032BFFF0EEA22EECFF1F00ED00101F20ED1
:1003A400E16E000EE26E3251E126000E32BFFF0E06
:1003B400E222310EE66E04D00001F151520AEEE061
:1003C4000101322BD7D7B60E346F000E356FD8DE4D
:1003D400020E386F4EDE820E0C6EDD0E0D6E0D2E8B
:1003E400FED70C2EFCD700000000F2C034F148DE2A
:1003F40000C038F13EDEF3C034F1DCDE00C038F179
:1004040038DE030E0101386F34DE6C0E0101346FE7
:08041400000E356FB5DE120089
:10041C0058EC03F0F288F086F088F28C9D8AF28E0C
:10042C00330E0B6EBB0E0C6EDF0E0D6E0D2EFED74B
:10043C000C2EFCD70B2EFAD700000000810EAF6EED
:10044C00AC843BDF96980001DF91836AF80E956EC1
:10045C00070E836E1A0E0B6E5E0E0C6E6E0E0D6E0C
:10046C000D2EFED70C2EFCD70B2EFAD70000836A6C
:10047C00700E0101346F000E356F7EDE6F520AE193
:10048C0000019E5307E1DEC038F1EFDD010E0001E3
:10049C009E6FF4D76F50010A5EE10101336B9F0E22
:1004AC00346F000E356F68DE0001B205016E026A12
:1004BC00000E025A800E006E800E0218005C03E1E2
:1004CC0001500101335D3EE20101F20E026E000E9D
:1004DC00036E33510226D8B0032A02C0E9FF03C0D1
:1004EC00EAFF610EEE5C0EE3F20EE96E000EEA6EB0
:1004FC003351E926D8B0EA2A200EEE5C006E000ECD
:10050C00016E0CD0F20EE96E000EEA6E3351E92644
:10051C00D8B0EA2AEECF00F0000E016E02C0E1FF67
:10052C0003C0E2FF00C0E6FFF20EE96E000EEA6EB9
:10053C003351E926D8B0EA2AEECF38F196DD010125
:10054C00332BB2D70001B26B6F6AAD0E0101346F61
:10055C00000E356F11DE83A20BD00001DFB108D085
:10056C0003DF500E346F000E356F06DE0001DF81A5
:10057C0083A027D00001DFB124D0180E0101346F05
:10058C00000E356FF9DD020E386F6FDD820E0C6ECA
:10059C00DD0E0D6E0D2EFED70C2EFCD700000000CC
:1005AC00210E0101346F000E356FE6DD030E386F3E
:1005BC005CDD5E0E0101346F000E356FDDDD000178
:1005CC00DF8183A40BD00001DFB108D0AADECE0EF0
:1005DC00346F000E356FD0DD0001DF814FD7FFD7B0
:1006B00010EE18F0C40E006E010E016EEC0EF66E18
:0E06C000050EF76E000EF86E8FEC01F01200C2
:0905EC00546573743A200D0A00F5
:1005F5005468697320697320612074657374206D74
:1006050065737361676520746F20636865636B202C
:0F06150074686520636F6E6E656374696F6E0045
:0E0624002E2E2E2073656E742E0D0A3E2000C1
:0E0632002E2E2E2073656E742E0D0A3E2000B3
:030640000D0A00A0
:0106430000B6
:1006440052697461204D2E200D0A4849542050727D
:100654006F6A65637420323031340D0A57616974EE
:0E066400696E6720666F7220446174613E000B
:010672000087
:0E0673000D0A2052656365697665643A2000C1
:050681000D0A3E2000FF
:010686000073
:030687000D0A0059
:0A068A00456E636F6465643A20005A
:0E0694004E6F6973652041646465643A20000E
:0E06A2002E2E2E2073656E742E0D0A3E200043
:020000040030CA
:0D000100220F0EFF0181FF0FC00FE00F4026
:00000001FF
